:060000000A128A11FC2F18
:100F3400F000831203130C1EA02FA12F9B2F700807
:100F4400990008008316031307138717813099004B
:100F54002430980090308312031398000800831201
:100F64000313981CB62FB72FB92F181218168C1EFE
:100F7400BC2FBD2FB92F1A0808000A128A11A42702
:100F84000A128A118316031386010A128A11B127E1
:100F94000A128A11F10061307106031DD22FD32F7A
:100FA400E32F8312031306144F300A128A119A276F
:100FB4000A128A116B300A128A119A270A128A11AC
:100FC400C72F62307106031DE82FE92FC72F831244
:100FD400031306104F300A128A119A270A128A1133
:100FE4006B300A128A119A270A128A11C72F0A1221
:0C0FF4008A11002883010A128A11BF2F05
:02400E00723FFF
:00000001FF
